:1000000070EF09F068961200046ED8CF05F0E0CFCB
:1000100006F00001E9CF0CF0EACF07F0E1CF08F0DD
:10002000E2CF09F0D9CF0AF0DACF0BF0F3CF12F01C
:10003000F4CF13F0FACF14F000C00EF001C00FF0AF
:1000400002C010F003C011F0A0AA2AEF00F0A1BA7C
:10005000FEEF07F00EC000F00FC001F010C002F07C
:1000600011C003F00CC0E9FF07C0EAFF078E08C00B
:10007000E1FF09C0E2FF0AC0D9FF0BC0DAFF12C0DE
:10008000F3FF13C0F4FF14C0FAFF045006C0E0FFF2
:1000900005C0D8FF1000F76AA60FF66E000EF72213
:1000A0000900F5501200000302FFFFFFFFFFFFFFF2
:1000B000FFFFFFFFFFFFF76AC60FF66E000EF72285
:1000C0000900F550120000FF02FFFFFFFFFFFFFFD6
:1000D000FFFFFFFFFFFFF76AE60FF66E000EF72245
:1000E0000900F550120040000B0040000000000025
:1000F0000000000000000000000000000000000000
:1001000000000000000007AE03D0F2CF0DF0F29E19
:10011000F76A280FF66E010EF7220900F55007AEB8
:1001200002D00DBEF28E1200400000004000000020
:1001300000000000000000000000000000000000BF
:100140000000000000000000F76A580FF66E010E74
:10015000F7220900F5501200090243000201008055
:10016000320904000001020201000524001001040C
:10017000240202052406000105240100010705816F
:10018000030B00FA09040100020A0000000705023F
:10019000024000010705820240000100F76AAC0F2F
:1001A000F66E010EF7220900F55012000200F76A00
:1001B000BE0FF66E010EF7220900F550120012175D
:1001C0001B20FFFFFFFFF76AD60FF66E010EF72226
:1001D0000900F55012001201100102000040052430
:1001E0000B00000101020001F76AF80FF66E010E24
:1001F000F7220900F5501200040309040803430024
:1002000043005300200343004300530020005500E7
:1002100053004200200074006F0020005500410090
:10022000520054006D92699468A402D06894FCD77F
:100230000AEF08F0400E0401016F040E036F180E60
:10024000026F880E006F046B040E076F580E066F66
:100250000001120070A002D0EDDF7090689A11EFDB
:1002600008F06A6A689216EF08F0A991A8BFA98100
:10027000A89FA851100803E2000E016E20D0A9A18A
:1002800010D0036AA851F2CFAAF0F29E04DFAABFF1
:10029000F28EFF0802E1000E01D0010E016E0FD0B8
:1002A0000ED0036AA851F2CFAAF0F29E04DFAABFD3
:1002B000F28EFF0802E1000E01D0010E016E120065
:1002C000AD51AF03F3CF01F0F4CF00F0B003F35022
:1002D0000026AE51AF03F3500020026E1200036AF5
:1002E000A751700FE96E0F0E0320EA6EEF6AA7C0E8
:1002F000A8F0BBDF015222E0AE6BA7C0ADF0B06B3F
:10030000080EAF6FDDDF01C0E9FF040E0224EA6EC4
:10031000EF6AAE6BA7C0ADF0B06B080EAF6FD0DF69
:1003200002C0A9F001C0A8F0040EA827000EA9235E
:10033000A8C0E9FF040EA925EA6EEF6A1200010EBB
:10034000A66FA6510F0805E3A6C0A7F0C8DFA62B2D
:10035000F8D71200A06B9F6B250E9E6F800E9D6FCD
:10036000EA6A2B0EE96EE26A9D0EE16E020E016EE4
:10037000E6CFEEFF012EFCD72D6A2E6A9D6BEA6A4E
:100380002F0EE96EE26A9D0EE16EE6CFEEFF9D6BE9
:10039000EA6A300EE96EE26A9D0EE16EE6CFEEFF8C
:1003A000080E9D6FEA6A310EE96EE26A9D0EE16EFB
:1003B000E6CFEEFF7D6B7C91336A326A7B6B1E90D9
:1003C0007E6B1200286A276A9C6B9C5101080AE325
:1003D000036A9C51290FE96E000E0320EA6EEF6A52
:1003E0009C2BF3D7B7DF186A010E196E176A12003B
:1003F0006A6A686A9F0E6B6E3D0E696E6E6A9FDF59
:10040000E1DF160E706E68A602D0FCDDFCD76D9899
:1004100011DF030E226E1BEF08F0698468986D826D
:1004200020EF08F0689C25EF08F0A1C023F012002F
:10043000236812009F6B275028103CE09F513F0813
:1004400039E31A5005E0020A0EE0010A17E020D055
:1004500026C003F02550F2CFA1F0F29E75DEA1BFB9
:10046000F28EA06F15D026C003F02550F2CFA1F078
:10047000F29EBADEA1BFF28EA06F0AD026C003F0B2
:100480002550F2CFA1F0F29E9EDEA1BFF28EA06FAA
:10049000252AD8B4262A2750D8B4280627069F51E3
:1004A0009F2B580FE96E040EEA6ED8B0EA2AA0C05E
:1004B000EFFFC1D72750281004E19F51400801E009
:1004C000176A9FC0A1F0B1DF1200266A256A1A6A76
:1004D00004011B51010A000107E0030A0BE0010AB5
:1004E0000DE0220A27E049D0286A120E276E030E7B
:1004F0001A6E45D0286A430E276E41D0020E1A6E3E
:10050000036A04011A511B0FE96E000E0320EA6E04
:10051000266AEFCF25F026C003F02550F2CF9EF0DB
:10052000F29E000161DE9EBFF28E036A276E03C059
:1005300028F025D0036A04011A51F2CF9EF0F29EF2
:10054000000135DE9EBFF28E036A256E03C026F0E1
:10055000253C02D026520FE026C003F02550F2CFF2
:100560009EF0F29EF1DD9EBFF28E036A276E03C0FD
:1005700028F005D002D05CDF11D05ADF0FD0040183
:100580001F5308E1285203E127501E5D03E2286A49
:100590001EC427F0010E176E00014CDF14EF04F0AB
:1005A0009E5304E1040E226ECADEE9D0050E226ECF
:1005B000040EA16F980EA06F010E9F6F9F510F0840
:1005C000D8A0DDD09FC0A7F08ADEA26B036A9F513E
:1005D000F2CFA6F0F29E6FDDA6BFF28EFF0865E0B7
:1005E000040EA26FD8909F35036AF2CFA6F0F29E58
:1005F0008ADD0900F5CF03F0A6BFF28EA36F03C01A
:10060000A4F0AE6B9FC0ADF0B06B080EAF6F58DEBC
:1006100001C0A6F0010E0124016E000E0220036E3F
:1006200001C0E9FF040E0324EA6EA3C0EFFFAE6B26
:100630009FC0ADF0B06B080EAF6F42DE01C0A6F0F8
:10064000020E0124016E000E0220036E01C0E9FFBC
:10065000040E0324EA6EA1C0ECFFED52A0C0EFFF30
:10066000D8909F35036AF2CFA6F0F29E4CDD0900C8
:10067000F5CF03F0A6BFF28EA0270350A123880E6A
:10068000A56FA4A101D0A581A4A301D0A583AE6BC1
:100690009FC0ADF0B06B080EAF6F12DE01C0E9FF76
:1006A000040E0224EA6EA5C0EFFF036A9F51F2CF49
:1006B000A6F0F29EF0DCA6BFF28EFF0845E0A28312
:1006C000AE6B9FC0ADF0B06B080EAF6FF9DD02C02E
:1006D000A7F001C0A6F0040EA627000EA723020E65
:1006E000A625016E000EA721036E01C0E9FF040ECE
:1006F0000324EA6EA1C0ECFFED52A0C0EFFFD8903A
:100700009F35036AF2CFA6F0F29EE5DC0900F5CF33
:1007100003F0A6BFF28EA0270350A123AE6B9FC0AB
:10072000ADF0B06B080EAF6FCBDD02C0A7F001C01B
:10073000A6F0040EA627000EA723A6C0E9FF040E0C
:10074000A725EA6E400EEF6EA251060802E10E0EDA
:10075000A26F036A9F51F2CFA6F0F29E9CDCA6BF67
:10076000F28E010801E0A289036A9F51700FE96EC1
:100770000F0E0320EA6EA2C0EFFF9F2B1FD70EEFD4
:1007800004F004011951000A00010DE0010A14E00F
:10079000020A1FE0060A29E0030A2EE00E0A2EE0F4
:1007A000010A32E040D019C058F40401596B020E1E
:1007B0000001A16F3ADE38D004011A2D07D0010ED6
:1007C00019160001A16B31DE03D00401000130DEF7
:1007D0002BD004011A2D06D019820001A16B25DE51
:1007E00003D00401000124DE1FD0020E176E1AC4CC
:1007F00024F0A16B1ADE18D068D616D018C058F4B1
:10080000010EA16F12DE10D004011A51010809E394
:100810001AC418F01AC49EF00001C2D6A16B05DEFE
:100820000401000101D004DE89EF05F018C09EF03C
:1008300004011951000A000105E00A0A0BE0010A4F
:100840002BE03CD00401586B596B020E0001A16FE4
:10085000ECDD35D09E531EE0010E9E5D036AF2CFA3
:100860009FF0F29E9BDC9FBFF28E016E04011C5D27
:10087000D8A002D000010ED0036A1C51290FE96EE6
:10088000000E0320EA6EEFCF58F4010E0001A16FB5
:10089000CCDD01D0CDDD13D09E530EE0036A040100
:1008A0001C51290FE96E000E0320EA6E1AC4EFFFF7
:1008B0000001A16BBADD01D0BBDD01D0B9DD89EF4C
:1008C00005F09F919EBF9F819E9F9FA117D0AE6B09
:1008D0009EC0ADF0B06B080EAF6FF2DC02C0A1F0AD
:1008E00001C0A0F0040EA027000EA123A0C0E9FFC4
:1008F000040EA125EA6E880EEF6E0DD0AE6B9EC081
:10090000ADF0B06B080EAF6FDBDC01C0E9FF040E89
:100910000224EA6EEF6A01EF05F09F919EBF9F816E
:100920009E9F9FA117D0AE6B9EC0ADF0B06B080E1E
:10093000AF6FC6DC02C0A1F001C0A0F0040EA0277A
:10094000000EA123A0C0E9FF040EA125EA6E840ECB
:10095000EF6E0ED0AE6B9EC0ADF0B06B080EAF6FF9
:10096000AFDC01C0E9FF040E0224EA6E840EEF6ED4
:1009700007EF05F09F919EBF9F819E9F9FA117D07B
:10098000AE6B9EC0ADF0B06B080EAF6F99DC02C0CD
:10099000A2F001C0A1F0040EA127000EA223A1C065
:1009A000E9FF040EA225EA6EEFCFA0F00ED0AE6BE9
:1009B0009EC0ADF0B06B080EAF6F82DC01C0E9FFE6
:1009C000040E0224EA6EEFCFA0F0A0AF02D0A0B5D3
:1009D00002D0000E01D0010E016E11EF05F01CC413
:1009E000A8F043DC015228E004011951010A00017A
:1009F00005E0020A09E0030A0DE01DD01CC49EF0C8
:100A000060D7A16B12DD18D01CC49EF086D7A16BF5
:100A10000CDD12D00401586B596B1CC49EF0000110
:100A2000A9D7015204E0010E0401586F0001020E23
:100A3000A16FFBDC01D0FCDC89EF05F0FE0E236E1C
:100A4000120004011C2D01D002D01C5348E11951A1
:100A5000000A00010BE0010A0DE0210A1CE0010A76
:100A60001FE0030A2EE0010A31E037D0010E7E6F4D
:100A7000E5DF34D0040EEA6E580EE96EE26A340EF9
:100A8000E16E080E016EE6CFEEFF012EFCD71EC40C
:100A9000A1F0CBDC23D0020E7E6F7C81CFDF1ED095
:100AA000040EEA6E580EE96EE26A2B0EE16E070E36
:100AB000016EE6CFEEFF012EFCD7070EA16FB5DC6D
:100AC0000DD01AC47DF0A16BB0DC08D01AC433F08D
:100AD0001BC432F0A16BA9DC01D0AADC0401000127
:100AE00089EF05F0176A040118517F0B000A000115
:100AF00007E0010A07E0030A07E0230A07E008D03D
:100B000040D607D093D605D06AD703D09AD701D064
:100B10008FDCB4EF07F0AE6B9FC0ADF0B06B080E8A
:100B2000AF6F60EC01F001C0E9FF040E0224EA6E31
:100B3000EFCFA1F0A051020806E1A1AD02D0A06B59
:100B400002D0010EA06FA05103081AE1840EA16F1C
:100B5000AE6B9FC0ADF0B06B080EAF6F60EC01F0F4
:100B600002C0A5F001C0A4F0040EA427000EA52326
:100B7000A4C0E9FF040EA525EA6E840EEF6E07D02F
:100B8000A02D03D0C80EA16F02D0880EA16FD890FF
:100B90009F35036AF2CFA4F0F29E83EC00F00900C7
:100BA000F5CF03F0A4BFF28EA26F03C0A3F0AE6B2B
:100BB0009FC0ADF0B06B080EAF6F60EC01F001C0EC
:100BC000A4F0010E0124016E000E0220036E01C08C
:100BD000E9FF040E0324EA6EA2C0EFFFA3A101D037
:100BE000A181A3A301D0A183AE6B9FC0ADF0B06B78
:100BF000080EAF6F60EC01F001C0E9FF040E0224A3
:100C0000EA6EA1C0EFFF1200036AAC51700FE96EEB
:100C10000F0E0320EA6EEF5219E0AE6BACC0ADF0E0
:100C2000B06B080EAF6F60EC01F002C0AEF001C017
:100C3000ADF0040EAD27000EAE23ADC0E9FF040EEB
:100C4000AE25EA6EEFCFAFF0AFAF02D0000E01D00D
:100C5000010E016E1200A7C0ACF0D6DF0152D8B46D
:100C60007DD0AE6BA7C0ADF0B06B080EAF6F60EC7F
:100C700001F002C0ADF001C0ACF0040EAC27000ED4
:100C8000AD23010EAC25016E000EAD21036E01C037
:100C9000E9FF040E0324EA6EA8C0EFFFAA51020880
:100CA0001EE1AE6BA7C0ADF0B06B080EAF6F60EC8D
:100CB00001F002C0ADF001C0ACF0040EAC27000E94
:100CC000AD23ACC0E9FF040EAD25EA6EEFCFABF06B
:100CD000ABAD02D0AA6B02D0010EAA6F18D0AA51F8
:100CE000040815E1AE6BA7C0ADF0B06B080EAF6F96
:100CF00060EC01F001C0E9FF040E0224EA6EEFCFC0
:100D0000ABF0ABAD03D0010EAA6F01D0AA6BAA2D38
:100D100003D0C80EAB6F02D0880EAB6FA9A101D073
:100D2000AB81A9A301D0AB83AE6BA7C0ADF0B06B14
:100D3000080EAF6F60EC01F002C0ADF001C0ACF086
:100D4000040EAC27000EAD23ACC0E9FF040EAD25A8
:100D5000EA6EABC0EFFF010E016E02D0000E016E15
:100D600012007E51010A03E0030A13E024D0EA6A6C
:100D7000340EE96E040EE26E180EE16E080E016E7E
:100D8000E6CFEEFF012EFCD7A16B15EC02F07E6BD7
:100D900013D0EA6A2B0EE96E040EE26E180EE16EB5
:100DA000070E016EE6CFEEFF012EFCD77E6BA16B26
:100DB00015EC02F001D07E6B11EF07F0AE6B9FC017
:100DC000ADF0B06B080EAF6F60EC01F002C0A1F0A7
:100DD00001C0A0F0010E0124016E000E0220036E7E
:100DE00001C0E9FF040E0324EA6E036AEFCF01F0AD
:100DF00003C002F007EF07F01E90020E9F6FA06F76
:100E00008ADE12001E80206A020E9F6FD7D701C0B3
:100E10001FF01F5201E1F0DF16EF07F09E5302E1D1
:100E2000A0D704D09E51020801E1ECD712009FC068
:100E30006EFF9F5303E0040E226E02D0020E226E5C
:100E400027EF07F0186A176A24C09FF0F0D793EFD6
:100E500007F09FC0ACF0D8DE015243E0AE6B9FC0FC
:100E6000ADF0B06B080EAF6F60EC01F002C0A8F0FF
:100E700001C0A7F0040EA727000EA823020EA72585
:100E8000016E000EA821036E01C0E9FF040E0324C9
:100E9000EA6EECCFA6F0ED52EFCFA5F0A6C0EAFFC8
:100EA000A5C0E9FFA1C0E2FFA0C0E1FFA3C002F01E
:100EB000A2C001F0015202E0022A02D0025206E072
:100EC000E6CFEEFF012EFCD7022EFAD79FC0A7F087
:100ED000A3C0A9F0A2C0A8F0A4C0AAF0BCDE015033
:100EE00002D0000E016E12007B530EE0020E9F6FC7
:100EF000A16B3C0EA06FA36B7BC0A2F0020EA46F8F
:100F0000A8DF015201E07B6B1200EEDF98EF07F0E3
:100F10009E530AE1172C03D01AEC02F004D01750AC
:100F20000208D8B48FD704D09E51020801E1EDD752
:100F3000120021309C6F9C339C331F0E9C17215252
:100F400041E1040100513C0B00019D6F430E04017F
:100F5000001700019D5134081EE104010451800B6B
:100F600001E0046B0001BED56D98233C05D09F6B5A
:100F7000030EA06FD0DD0ED09F6B020EA06FCBDDF5
:100F80002350FE0807E0A76BA96B23C0A8F0040E4E
:100F9000AA6F61DE16D09D51040813E19E6B3EDFFF
:100FA0009F6B020EA06FB7DD2350FE080AE0233CC2
:100FB00001D007D0A76BA96B23C0A8F0010EAA6FC0
:100FC0004ADE1AD0215004080EE123689E6BA0DF90
:100FD000233C01D007D0A76BA96B23C0A8F0020E59
:100FE000AA6F39DE09D021B404D09CC09EF016DF70
:100FF00003D09CC09EF08CDF2FEF08F0A19A225204
:10100000D8B433D06852D8B430D068A403D069B40F
:1010100012EF01F06DB229D068AA03D069BA2AEFA5
:1010200001F068A203D069B231EF01F068A003D0EB
:1010300069B0F8EF01F068A803D069B80DEF02F0CD
:1010400068AC03D069BC12EF02F09B6B68A608D0B5
:1010500069A606D06CCF21F002EC00F06AD701D06F
:1010600004D09B519B2B0308F1E22AEF00F06D6F37
:1010700074657572204D3120656E206172726574E1
:101080002E0A0D006D6F74657572204D3120656EEE
:10109000206D61726368652E0A0D00006D6F7465C6
:1010A0007572204D3220656E2061727265742E0A51
:1010B0000D006D6F74657572204D3220656E206D68
:1010C00061726368652E0A0D00006D6F746575723C
:1010D000204D3320656E2061727265742E0A0D00FA
:1010E0006D6F74657572204D3320656E206D617271
:1010F0006368652E0A0D00006D6A696A080E6F6EDE
:1011000094503009946E226A166AF2BE168EF29ED0
:10111000E2EC01F016BEF28E8FEF08F0EDD7B4EFDF
:1011200008F0166AF2BE168EF29EE2EC01F016BED0
:10113000F28E6D6A140E6F6E696A6D86010E226EF4
:10114000A5EF08F06DB601D0ECD7222C0BD06DBA0C
:1011500009D0686A696AA08AC00EF212110E696E1F
:10116000020E226E1200DAD7EDDF22500208FCE1F7
:101170008CEF09F092928982929089908FEF09F01A
:10118000929089809292899291EF09F01850016EA5
:1011900093EF09F09294898496EF09F01EB001D084
:1011A000FDD72050202AA30FE96E040EEA6ED8B0B6
:1011B000EA2AEFCF84F01F50205C07E3166AF2BEE4
:1011C000168EF29E19DE16BEF28E84C001F0120059
:1011D0008991A0BA8981A09A7B513E0802E23E0E15
:1011E0007B6F7B517B2B036A3C0FE96E000E032063
:1011F000EA6E88C0EFFF89A101D0A08A03EF09F051
:1012000087C088F0E5D7166AF2BE168EF29E6CDEB5
:1012100016BEF28E14EF09F03F0ED8807B5501E127
:10122000FBD786C087F0ECD720EF09F00900F55214
:101230000CE0F6CF84F0F7CF85F0F5CF86F0ECD751
:1012400084C0F6FF85C0F7FFF1D7120093928A920F
:1012500093948A9493968A96A1DF01506C0812E1C8
:1012600093928A72010E81278151010B06E16E0E65
:10127000F66E100EF76EDADF05D0840EF66E100EE5
:10128000F76ED4DF8BDF01506D0812E193948A74FE
:10129000010E82278251010B06E19C0EF66E100EA4
:1012A000F76EC4DF05D0B20EF66E100EF76EBEDF1D
:1012B00075DF01506E0812E193968A76010E83273E
:1012C0008351010B06E1CA0EF66E100EF76EAEDF0B
:1012D00005D0E00EF66E100EF76EA8DF99EF09F05C
:1012E000F86AD09E078EC150C00B0F09C16E070E61
:1012F000B46E1B6A040E1C6E0C0E1D6E7F6B806B31
:10130000000E926E936E166AF2BE168EF29EAAECD4
:1013100001F016BEF28E27D77CB102D02BD7FCD7B6
:101320002FD710DF33D7015204E034D71EA001D0ED
:061330008DD7F7D7030082
:020000040030CA
:0E00000024CE3E1E0005A1000FC00FE00F40F1
:00000001FF
;PIC18F4550
;CRC=BEC0  CREATED="05-mai-17 15:13"
